S01A00004D58545F4558414D504C455F5553415254312E7372656387
S214400000D02F4020E53E4000953F4000953F4000C1
S214400010953F4000953F4000953F4000000000005F
S214400020000000000000000000000000953F400077
S214400030953F400000000000953F4000953F40003F
S214400040953F4000953F4000D54F4000953F4000CB
S214400050953F4000953F4000953F4000953F40000B
S214400060953F40000000000001304000193040003D
S21440007031304000953F4000953F4000953F40005E
S2144000804930400061304000953F4000953F400079
S214400090953F4000953F4000953F4000953F4000CB
S2144000A0953F4000953F4000953F4000953F4000BB
S2144000B0953F4000953F4000953F4000953F4000AB
S2144000C0953F4000953F4000953F4000953F40009B
S2144000D0953F4000953F4000953F4000953F40008B
S2144000E0953F4000953F4000953F4000953F40007B
S2144000F0953F4000953F4000953F4000953F40006B
S214400100953F4000953F4000953F4000953F40005A
S214400110953F400000000000000000000000000086
S214400120953F4000953F4000953F4000953F40003A
S214400130953F4000953F4000953F4000953F40002A
S214400140953F4000953F4000953F4000953F40001A
S214400150953F4000953F4000953F4000953F40000A
S214400160953F4000953F400010B5054C237833B985
S214400170044B13B10448AFF300800123237010BD35
S214400180F00A402000000000C45744000C4B43B126
S2144001900C480D4910B5AFF300800C48036823B9EE
S2144001A010BD0A48036833B97047094B002BF7D097
S2144001B0BDE810401847064B002BF5D0184700BF47
S2144001C000000000C4574400F40A4020C4574400CE
S2144001D00000000080B483B000AF786039603B68B0
S2144001E0002B06D07B685B6843F001027B685A6050
S2144001F005E07B685B6823F001027B685A6000BFBD
S2144002000C37BD465DF8047B704780B483B000AFC2
S214400210786039607B683A681A6200BF0C37BD4622
S2144002205DF8047B704780B487B000AFF860B96073
S2144002307A603B60FB689B687B6102E0FB689B687A
S2144002407B61FB689A687B699A42F7D1BB68002B52
S2144002501CD07B691B0C03F03F033B613B691A09CA
S21440026013469B0013445B001A463B6903F00F039A
S2144002701A44BB681A607B6903F48003002B05D0E0
S214400280BB681B6803F10C02BB681A607B68002BD6
S21440029011D07B691B0A03F07F033B613B691A0957
S2144002A013469B0013445B001A463B6903F00F035A
S2144002B01A447B681A603B68002B10D07B6903F0B9
S2144002C07F033B613B691A0913469B0013445B005E
S2144002D01A463B6903F00F031A443B681A6000BF96
S2144002E01C37BD465DF8047B7047000080B487B07D
S2144002F000AFF860B9607A603B6000237B61FB68C2
S2144003005B6803F00103012B09D1BB680C2B06D9AF
S214400310BB680C3BBB607B6943F480037B61BB6876
S214400320334AA2FB0323DB081805B968304BA3FB0E
S2144003300123DA0813469B0013445B00CA1A1304D1
S21440034003437A6913437B617B68294AA2FB0323F4
S214400350DB0818037968264BA3FB0123DA0813460B
S2144003609B0013445B00CA1A130203437A69134383
S2144003707B613B681E4AA2FB0323DB0818013968F1
S2144003801B4BA3FB0123DA0813469B0013445B0078
S214400390CA1A40EA02037A6913437B6100BFFB68CE
S2144003A09B6903F00403042BF9D1FB681B6843F0F8
S2144003B00102FB681A6000BFFB689B6903F00103FB
S2144003C0012BF9D1FB680122DA61FB687A699A60F1
S2144003D0FB681B6823F00102FB681A60FB68DB6A57
S2144003E003F0010318461C37BD465DF8047B704792
S2144003F0CDCCCCCC80B487B000AFF860B9607A6022
S2144004003B6000237B61BB68002B24D0FB685B68A5
S21440041003F00103012B09D17B680C2B06D97B68BE
S2144004200C3B7B607B6943F480037B617B682E4A90
S214400430A2FB0323DB08180579682B4BA3FB01239B
S214400440DA0813469B0013445B00CA1A130403439E
S2144004507A6913437B613B68002B14D03B6A224A7F
S214400460A2FB0323DB081803396A1F4BA3FB0123B7
S214400470DA0813469B0013445B00CA1A1302034370
S2144004807A6913437B617B6A002B14D0BB6A164A99
S214400490A2FB0323DB081801B96A134BA3FB012315
S2144004A0DA0813469B0013445B00CA1A40EA02036C
S2144004B07A6913437B61FB681A690C4B1340FA68F0
S2144004C01361FB687A691A61FB681A69084B134323
S2144004D0FA681361FB68DB6A03F0040318461C37AE
S2144004E0BD465DF8047B7047CDCCCCCC7F7F7FFF8C
S2144004F08080800080B487B000AFF860B9607A60D2
S2144005003B6000237B61BB68474AA2FB03239B09F1
S2144005101801BB68454AA2FB03235909444BA3FB79
S2144005200123DA0813469B0013445B00CA1A40EACC
S21440053002037A6913437B61BB683D4AA2FB0323EF
S214400540D9083B4BA3FB0123DA0813469B00134410
S2144005505B00CA1A1003B968354BA3FB0123DA08BF
S21440056013469B0013445B00CA1A130203437A697E
S21440057013437B617B682E4AA2FB0323DB081805E6
S21440058079682B4BA3FB0123DA0813469B001344E0
S2144005905B00CA1A130403437A6913437B613B6AC0
S2144005A05B057A6913437B613B68214AA2FB0323C0
S2144005B0DB08180739681E4BA3FB0123DA081346ED
S2144005C09B0013445B00CA1A130603437A6913431D
S2144005D07B6100BFFB689B6903F00403042BF9D1E1
S2144005E0FB681B6843F00202FB681A6000BFFB68AA
S2144005F09B6903F00103012BF9D1FB680122DA6104
S214400600FB687A69DA60FB681B6823F00202FB68C5
S2144006101A60FB68DB6A03F0020318461C37BD46C7
S2144006205DF8047B704700BFD34D62101F85EB51C9
S214400630CDCCCCCC80B483B000AF78607B689B696F
S21440064018460C37BD465DF8047B704780B483B0CF
S21440065000AF786039607B683A68DA6100BF0C3773
S214400660BD465DF8047B704780B489B000AF7860C3
S2144006707B68FB61FB69BB61BB697B617B695B092E
S2144006803B613A690B4B13445B02DA6BFB69FB60D8
S214400690FB6803F01F03012101FA03F31340002B0C
S2144006A014BF01230023DBB218462437BD465DF84D
S2144006B0047B70470707200080B485B000AF7860A1
S2144006C00023BB730023FB730EE07B685968FA7BFC
S2144006D013465B0013445B000B445A79BB7B1344C0
S2144006E0BB73FB7B0133FB737B681B689B79FA7B90
S2144006F09A42EAD3BB7B18461437BD465DF8047B66
S2144007007047000080B588B000AF78600720154B72
S214400710984703461A467B681A6007F10C03002286
S2144007201A605A609A60DA601A6102233B617B68FD
S2144007301B687B610723BB617B681B7B3B777B68C1
S2144007409B6807F10C0211461846074B984703462C
S214400750002B02D04FF0FF3300E00023184620372E
S214400760BD4680BDCD6540003539400080B588B077
S21440077000AF78607B681B689B791A4613465B001F
S21440078013445B0018461A4B984703461A467B6844
S2144007905A6007F10C0300221A605A609A60DA60C9
S2144007A01A6107233B7302233B617B685B687B616E
S2144007B07B681B689B791A4613465B0013445B00B4
S2144007C0BB617B681B7B3B777B689B6807F10C02B1
S2144007D011461846074B98470346002B02D04FF069
S2144007E0FF3300E0002318462037BD4680BD00BFDB
S2144007F0CD6540003539400080B584B000AF7860A4
S21440080078680D4B98470346FB73FB7B002B02D062
S21440081097F90F300BE07868084B98470346FB7310
S214400820FB7B002B02D097F90F3000E000231846E0
S2144008301037BD4680BD00BF050740006D0740002D
S21440084080B584B000AF786001233B737868334B43
S21440085098470346FB72FB7A5B001846304B984736
S21440086003461A467B685A610023FB734AE000231E
S214400870BB7338E07B685968FA7B13465B001344C9
S2144008805B000B445B79002B2AD000237B731BE074
S2144008907B685A693B7B5B00D1187B685868FA7B5B
S2144008A013465B0013445B0003441B780B707B6865
S2144008B05A693B7B5B001344BA7B5A703B7B0133DF
S2144008C03B737B7B01337B737B685968FA7B1346AB
S2144008D05B0013445B000B445B797A7B9A42D7D328
S2144008E0BB7B0133BB737B685968FA7B13465B005E
S2144008F013445B000B441B79BA7B9A42BAD9FB7B04
S2144009000133FB737B681B689B79FA7B9A42AED3B4
S214400910002318461037BD4680BD00BFB9064000CC
S214400920CD65400080B485B000AF78600B46FB7064
S2144009301346BB70BB789BB21B029AB2FB789BB245
S21440094013437B817B685A007B895340FB60FB687E
S21440095003F08073002B04D0054B1B68FA685340A5
S214400960FB60FB6818461437BD465DF8047B70474D
S21440097088BF400080B588B000AF786039600023FB
S214400980FB617B681B687B617B685B683B617B685F
S2144009901B689B799BB21A46520013445B009BB27D
S2144009A00733FB8100237B8310E07B8B7A691344FB
S2144009B019787B8B01337A6913441B781A46F86999
S2144009C0204B9847F8617B8B02337B837B8B052BD0
S2144009D0EBD97B69063319783B691B781A46F86968
S2144009E0184B9847F86101237B8310E07B8B3A696C
S2144009F0134419787B8B01333A6913441B781A46A3
S214400A00F869104B9847F8617B8B02337B837A8B6F
S214400A10FB89083B9A42E9DBFB89083B3A69134469
S214400A201B7800221946F869064B9847F861FB691F
S214400A3023F07F423B681A60002318462037BD46A5
S214400A4080BD00BF2509400080B58AB000AF786001
S214400A507B681B689B799BB21A46520013445B0026
S214400A609BB20733FB8407F10C0300221A605A60DE
S214400A709A60DA601A61FB8CDBB23B73FB8C1B0A14
S214400A809BB2DBB27B7302233B6107F120037B61A1
S214400A900323BB617B681B7B3B777B689B6807F1C6
S214400AA00C02114618460B4B98470346002B02D0C3
S214400AB04FF0FF3309E097F822301B0497F82120C7
S214400AC01202134397F82020134318462837BD4692
S214400AD080BD00BF3539400080B584B000AF786037
S214400AE007F1080319467868084B98477868084B1A
S214400AF09847F860BA68FB689A4202D06FF00303E2
S214400B0000E0002318461037BD4680BD75094000FA
S214400B10490A400080B485B000AF78600B467B80C1
S214400B200023FB731CE07B685968FA7B13465B0026
S214400B3013445B000B44B3F801309BB27A889A4268
S214400B400BD17B685968FA7B13465B0013445B0005
S214400B500B44DB780133DBB209E0FB7B0133FB73EC
S214400B607B681B689B79FA7B9A42DCD30023184645
S214400B701437BD465DF8047B7047000080B584B0EE
S214400B8000AF78600B46FB707868104B984703467A
S214400B90BB730023FB730EE07B685A69FB7B5B00EC
S214400BA013441B78FA789A4202D197F90F3008E03E
S214400BB0FB7B0133FB73FA7BBB7B9A42ECD34FF053
S214400BC0FF3318461037BD4680BD00BFB90640000B
S214400BD080B485B000AF78600023FB7317E07B6875
S214400BE05968FA7B13465B0013445B0019447B68E4
S214400BF05868FA7B13465B0013445B000344B3F823
S214400C0001309BB2A1F80130FB7B0133FB737B685C
S214400C101B689B79FA7B9A42E1D300BF1437BD46E6
S214400C205DF8047B7047000080B586B000AFF86082
S214400C30B9603B601346FB71FB68BA689A60FB6814
S214400C40FA791A73FB683A689A61FB6800221A615F
S214400C50F8681E4B98470346FB7597F91730002BEC
S214400C6002D097F917302CE0F868194B984703469E
S214400C70FB7597F91730002B02D097F9173020E014
S214400C80F868144B9847F868134B98470346FB752B
S214400C9097F91730002B02D097F9173011E0092149
S214400CA0F8680E4B98470346FB7597F91730B3F133
S214400CB0FF3F02D16FF0030303E0FB68FA7D1A772B
S214400CC0002318461837BD4680BD00BFF9074000D0
S214400CD0D90A4000D10B4000410840007D0B40003F
S214400CE080B485B000AF78600B46FB701346BB708F
S214400CF00023FB731AE07B685968FA7B13465B0057
S214400D0013445B000B441B78FA789A420BD17B68FD
S214400D105968FA7B13465B0013445B000B44B3F8F8
S214400D2001309BB209E0FB7B0133FB737B681B6899
S214400D309B79FA7B9A42DED3002318461437BD4689
S214400D405DF8047B7047000080B58AB000AFF8605D
S214400D500B467A607B8107F1140300221A605A60C2
S214400D609A60DA601A617B89DBB23B757B891B0A25
S214400D709BB2DBB27B750223BB617B68FB617B89E0
S214400D801946F8680D4B984703463B62FB681B7B49
S214400D9087F82430FB689B6807F114021146184612
S214400DA0074B98470346002B02D04FF0FF3300E036
S214400DB0002318462837BD4680BD00BF150B4000AF
S214400DC01D3A400080B588B000AF78600B467B8007
S214400DD013467B7007F10C0300221A605A609A6033
S214400DE0DA601A617B88DBB23B737B881B0A9BB256
S214400DF0DBB27B7302233B617B1C7B610123BB61BF
S214400E007B681B7B3B777B689B6807F10C0211462F
S214400E101846064B98470346002B02D04FF0FF3348
S214400E2000E0002318462037BD4680BD1D3A4000EE
S214400E3080B582B000AF78607B689B691846074BE8
S214400E409847034683F00103DBB2002B01D0012311
S214400E5000E0002318460837BD4680BD69064000BE
S214400E6080B588B000AF7860396000220521786888
S214400E70174B98470346FB8307F1080300221A6086
S214400E805A609A60DA601A61FB8BDBB23B72FB8B6E
S214400E901B0A9BB2DBB27B720223FB603B683B6162
S214400EA009237B617B681B7B3B767B689B6807F1ED
S214400EB0080211461846074B98470346002B02D0B7
S214400EC04FF0FF3300E0002318462037BD4680BD74
S214400ED0E10C40003539400080B586B000AF786000
S214400EE0396042E007F10C0319467868254B98476D
S214400EF00346FB75FB7D002B02D097F917303CE08C
S214400F0007F10C03194678681F4B98470346BB7594
S214400F10BB7D092B29D13A7B7B6893F91C30DBB229
S214400F20D31ADAB23B681A707A7B3B685A70BB7B3E
S214400F301B011AB23B7C1B09DBB21BB213431BB22C
S214400F409AB23B685A80FB7B1B011AB23B7C1BB2B1
S214400F5003F00F031BB213431BB29AB23B689A804E
S214400F607A7C3B689A71002307E07868074B98477D
S214400F700346002BB6D16FF0030318461837BD461C
S214400F8080BD00BF610E4000910F4000310E400012
S214400F9080B483B000AF786039607B685A693B683C
S214400FA01B785B0013441B7818460C37BD465DF82B
S214400FB0047B704780B582B000AF78607B68072BB3
S214400FC031D801A252F823F025104000E90F400026
S214400FD0F10F4000F90F400001104000091040009A
S214400FE0111040001B1040000020114B98471AE09B
S214400FF001200F4B984716E000200E4B984712E012
S21440100010200C4B98470EE020200A4B98470AE0E9
S2144010103E210020084B984705E03E210120064B24
S214401020984700E000BF00BF0837BD4680BD00BF00
S21440103079314000E53140005532400080B582B0FD
S21440104000AF78607B68072B26D801A252F823F0C1
S2144010507110400075104000751040008710400029
S21440106087104000871040008710400087104000DF
S214401070012312E00B4B98470346002B14BF012375
S2144010800023DBB209E0084B98470346002B14BF09
S21440109001230023DBB200E0002318460837BD4694
S2144010A080BD00BFB1314000CD32400080B483B037
S2144010B000AF78607B68072B25D801A252F823F052
S2144010C0E1104000E7104000ED104000F3104000F3
S2144010D0F7104000FB104000FF1040000311400096
S2144010E04FF4FA4310E04FF400430DE04FF4004352
S2144010F00AE0084B08E0084B06E0084B04E0074BC4
S21440110002E0064B00E0002318460C37BD465DF86B
S214401110047B704700093D0000127A00001BB700B0
S21440112080B582B000AF0346FB7100BFFB7918461E
S214401130054B9847034683F00103DBB2002BF5D1FD
S21440114000BF0837BD4680BD3D10400080B586B024
S21440115000AFF8607A603B600B46FB727B68002B02
S21440116007D13B68002B04D1FB684FF470021A602D
S21440117019E0FB7A18460E4B984702467B68B2FB4E
S214401180F3F37B617B693A6802FB03F37B613B6860
S214401190013B1A04074B13407A68D2B2134343F418
S2144011A07C52FB681A6000BF1837BD4680BD00BF42
S2144011B0AD1040000000FF0780B582B000AF7860F9
S2144011C039603B68002B08D1094B9847094A7B6831
S2144011D01B6843F00053936205E0064A7B681B6831
S2144011E043F48033D36100BF0837BD4680BD00BF9F
S2144011F0E932400000060E4080B582B000AF78600D
S2144012007B68002B03D1054B9847034602E0044B0E
S2144012109847034618460837BD4680BD053340000C
S2144012202133400080B582B000AF0346FB71FB79A6
S214401230033B042B08D8FB791846064B9847FB79A6
S2144012401846054B984700E000BF00BF0837BD462C
S21440125080BD00BFB50F40002111400080B582B070
S21440126000AF786000BF7868044B98470346002B71
S214401270F9D0002318460837BD4680BDF911400016
S21440128080B500AF0620054B9847024613469B00A4
S21440129013449A001344184680BD00BFAD1040006A
S2144012A080B500AF024B98470346184680BD00BF46
S2144012B08112400090B583B000AF1348134B984757
S2144012C00620134B9847381D192301220621114C3E
S2144012D0A0473B1D002118460F4B984700200F4B58
S2144012E0984702200E4B984700200E4B98470E4BCF
S2144012F098470E4B984703461846044B984700BFFE
S2144013000C37BD4690BD00BF000E27070541400084
S214401310251240004D114000B91140005D124000BA
S21440132079304000F53040009D3F4000A11240001B
S21440133080B582B000AF78600B46FB707B68364A5B
S21440134093420AD100BFFB7819467868334B9847DA
S2144013500346002BF7D101235AE07B68304A93427C
S2144013600AD100BFFB78194678682C4B984703464D
S214401370002BF7D101234BE07B682A4A93420AD1DF
S21440138000BFFB7819467868244B98470346002BE5
S214401390F7D101233CE07B68234A93420AD100BF41
S2144013A0FB78194678681D4B98470346002BF7D1C3
S2144013B001232DE07B681D4A93420AD100BFFB788B
S2144013C0194678681A4B98470346002BF7D10123F5
S2144013D01EE07B68174A93420AD100BFFB78194645
S2144013E07868134B98470346002BF7D101230FE04C
S2144013F07B68114A93420AD100BFFB781946786849
S2144014000B4B98470346002BF7D1012300E00023FF
S21440141018460837BD4680BD00080E406F3B40006A
S214401420000A0E40001A0E40001C0E4000400240CB
S214401430D53D40000080024000C0024080B584B0E8
S21440144000AFF860B9607A600BE0BB681B7819465D
S214401450F868084B98477B68013B7B60BB68013364
S214401460BB607B68002BF0D1002318461037BD4682
S21440147080BD00BF3113400080B483B000AF7860B9
S2144014807B68072B25D801A252F823F0AD14400004
S214401490B3144000B9144000BF144000C3144000C9
S2144014A0C7144000CB144000CF1440004FF4FA431A
S2144014B010E04FF400430DE04FF400430AE0084BC1
S2144014C008E0084B06E0084B04E0074B02E0064BFA
S2144014D000E0002318460C37BD465DF8047B704795
S2144014E000093D0000127A00001BB70080B500AF2F
S2144014F00620054B9847024613469B0013449A0025
S2144015001344184680BD00BF7914400080B500AF34
S214401510024B984703465B08184680BDED144000D2
S21440152080B483B000AF78607B6880221A6000BFCA
S2144015300C37BD465DF8047B704780B483B000AF7F
S21440154078607B685B6843F001027B685A6000BF46
S2144015500C37BD465DF8047B704780B483B000AF5F
S21440156078607B685B6823F002027B685A6000BF45
S2144015700C37BD465DF8047B704780B483B000AF3F
S21440158078607B685B6823F004027B685A6000BF23
S2144015900C37BD465DF8047B704780B483B000AF1F
S2144015A078607B685B6803F00403002B01D001235E
S2144015B000E0002318460C37BD465DF8047B7047B4
S2144015C080B483B000AF78607B685B6843F01002FD
S2144015D07B685A6000BF0C37BD465DF8047B704799
S2144015E080B483B000AF78607B685B6823F080028D
S2144015F07B685A6000BF0C37BD465DF8047B704779
S21440160080B483B000AF78600B467B807A887B6876
S214401610DA6000BF0C37BD465DF8047B704780B487
S21440162083B000AF78607B689B689BB218460C37E7
S214401630BD465DF8047B704780B483B000AF7860E9
S2144016407B681B6903F00203002B01D0012300E0F6
S214401650002318460C37BD465DF8047B704780B4BF
S21440166083B000AF78607B681A6940F2012313406C
S21440167040F20122934201D1012300E000231846A4
S2144016800C37BD465DF8047B7047000080B582B0DD
S21440169000AF78600B46FB70FB789BB219467868C3
S2144016A0024B984700BF0837BD4680BD0116400034
S2144016B080B582B000AF786039607868044B984750
S2144016C00346DAB23B681A7000BF0837BD4680BD95
S2144016D01F16400080B582B000AF78607868104B27
S2144016E0984778680F4B984778680F4B98477868C4
S2144016F00E4B984778680E4B9847002178680D4BFC
S214401700984778680C4B984778680C4B9847002168
S21440171078680B4B984700BF0837BD4680BD00BF72
S214401720BD334000211540003B154000C115400028
S214401730E1154000F93340005B1540007B15400042
S2144017402D34400090B587B000AFF860B9603B607C
S2144017501346FB71204B98470346194638681F4B83
S21440176098470346FB82BB68196800230022F86846
S2144017701B4CA047BB681B6808221946F868194BE3
S2144017809847BB681B68FA8AD2B21946F868164B67
S2144017909847BB681B6808221946F868134B984759
S2144017A0BB681968FB795B08DBB21A46F868104BD1
S2144017B09847BB681968FB7903F00103002B0CBF00
S2144017C001230023DBB21A46F8680A4B984700BF4D
S2144017D01C37BD4690BD00BF0D1540006D3640001D
S2144017E00737400023364000A93640007D3540008C
S2144017F0DD3440002D35400080B582B000AF7860C3
S21440180039607868104B98470346002B0AD03B68EF
S2144018101B680F2B14D83B681B68194678680B4B1F
S21440182098470DE03B681B68032B09D83B681B684C
S214401830012202FA03F3DB4319467868034B9847C4
S21440184000BF0837BD4680BD9B154000F9334000B9
S21440185080B588B000AFF860B9607A6043F69823E8
S214401860FB610023BB6121E043F69823FB6107E060
S214401870FB695A1EFA61002B02D16FF0020319E091
S214401880F8680E4B98470346002BF1D0BA68BB6900
S21440189013441B78FB75FB7D1946F868084B984740
S2144018A0BB690133BB617B68013B7B607B68002B77
S2144018B0DAD1002318462037BD4680BD3916400091
S2144018C08D16400080B588B000AFF860B9607A6089
S2144018D043F69823FB610023BB6138E043F6982328
S2144018E0FB6107E0FB695A1EFA61002B02D16FF0DC
S2144018F0020330E0F8681A4B98470346002BF1D0B5
S214401900FF21F868174B984743F69823FB6107E09A
S214401910FB695A1EFA61002B02D16FF002031AE0EF
S214401920F868114B98470346002BF1D007F1170390
S2144019301946F8680D4B9847BA68BB691344FA7D58
S2144019401A70BB690133BB617B68013B7B607B6877
S214401950002BC3D1002318462037BD4680BD00BFAC
S214401960391640008D1640005F164000B116400004
S21440197080B586B000AFF860B9607A6000237B61BE
S214401980FB68002B12D04FF0FF3313E00B4B1B6865
S2144019900B4A1268B96810469847BB680133BB606B
S2144019A07B6901337B617B68013B7B607B68002BF6
S2144019B0ECDC7B6918461837BD4680BD880F402052
S2144019C0900F402080B586B000AFF860B9607A606E
S2144019D000237B61FB68012B1ED0FB68022B1BD0CB
S2144019E0FB68032B18D04FF0FF3319E00E4B1A68F4
S2144019F00E4B1868BB68591CB9601B78194690474F
S214401A000346002B02DA4FF0FF3309E07B690133CF
S214401A107B617B68013B7B607B68002BE6D17B6902
S214401A2018461837BD4680BD8C0F4020900F40208A
S214401A3080B400AFBFF34F8FBFF36F8F094B0022C8
S214401A40C3F85022074A074B5B6943F4003353619F
S214401A50BFF34F8FBFF36F8F00BFBD465DF8047B6B
S214401A60704700BF00ED00E080B48BB000AF264B5F
S214401A70D3F88030FB61FB695B0BC3F30E037B62DC
S214401A80FB6903F007030433BB61FB69DB08C3F360
S214401A9009037B617B69BB60BB68B3FA83F37B60F9
S214401AA07B68DBB203F01F033B61BFF34F8F7B695C
S214401AB03B623A6A3B6902FA03F319467A6ABB69A3
S214401AC002FA03F30B43FB600F4AFB68C2F860322E
S214401AD03B6A5A1E3A62002BEBD17B6A5A1E7A62E8
S214401AE0002BE4D1BFF34F8F074A074B5B6943F4A3
S214401AF080335361BFF34F8FBFF36F8F00BF2C37D8
S214401B00BD465DF8047B704700ED00E080B582B0CE
S214401B1000AF78607868034B984700BF0837BD46EB
S214401B2080BD00BF3D33400080B500AF0A20084B63
S214401B3098470B20064B98470C20054B984710209B
S214401B40034B98471120024B984700BF80BD00BF0B
S214401B500D1B400080B489B000AF78607B68FB61A5
S214401B60FB69BB61BB695A09FB697B617B6903F012
S214401B701F03012101FA03F33A61FB603B69BB6036
S214401B80BA68064B13445B021A46FB68536000BFB4
S214401B902437BD465DF8047B704700BF070720002A
S214401BA080B48DB000AF786039607B68FB623B687C
S214401BB0BB62FB6A7B627B6A5A09FB6A3B623B6A92
S214401BC003F01F03012101FA03F3FA61BB61BB6A0C
S214401BD07B61FB693B613A69374B13445B02FB60B0
S214401BE07B6903F00803002B03D0FB68BA695A668A
S214401BF002E0FB68BA691A667B6903F01003002BA3
S214401C0004D0FB68BA69C3F8942003E0FB68BA695D
S214401C10C3F890207B6903F02003002B03D0FB68B9
S214401C20BA691A6502E0FB68BA695A657B6903F0CF
S214401C30C003002B03D0FB68BA691A6202E0FB6857
S214401C40BA695A627B6903F08003002B04D0FB68B4
S214401C50BA69C3F8842003E0FB68BA69C3F88020F9
S214401C607B6903F00103002B06D0FB681A6FBB6943
S214401C701A43FB681A6706E0FB681A6FBB69DB43CA
S214401C801A40FB681A677B6903F00203002B06D0F4
S214401C90FB685A6FBB691A43FB685A6706E0FB68E5
S214401CA05A6FBB69DB431A40FB685A6700BF34373C
S214401CB0BD465DF8047B70470707200080B48DB0B2
S214401CC000AF78600B46FB707B68FB62FB7887F85A
S214401CD02B30FB6A7B627B6A3B623B6A5B09FB613B
S214401CE0FA69174B13445B02BB6197F82B30012B04
S214401CF009D1FB6A7B617B6903F01F0301229A408E
S214401D00BB691A610CE097F82B30002B08D1FB6AB0
S214401D103B613B6903F01F0301229A40BB695A614D
S214401D20FB6AFB60FB6803F01F0301229A40BB6915
S214401D30C3F8A02000BF3437BD465DF8047B70472B
S214401D400707200080B48BB000AF78600B46FB706E
S214401D507B687B62FB7887F823307B6AFB61FB6994
S214401D60BB61BB695B097B617A69104B13445B02BC
S214401D703B6197F82330002B09D07B6AFB60FB68F9
S214401D8003F01F0301229A403B691A6308E07B6A0E
S214401D90BB60BB6803F01F0301229A403B695A634D
S214401DA000BF2C37BD465DF8047B70470707200010
S214401DB080B48DB000AF78600B46FB707B68FB62EA
S214401DC0FB7887F82B30FB6A7B627B6A5A09FB6A92
S214401DD03B623B6A03F01F03012101FA03F3FA61F9
S214401DE0BB6197F82B30FB75FB693B613A69234B27
S214401DF013445B02FB60FB7D013B032B2ED801A204
S214401E0052F823F0391E40004B1E4000151E40007D
S214401E10271E4000FB68BA69C3F8C420FB68BA694D
S214401E20C3F8D0201FE0FB68BA69C3F8C420FB683B
S214401E30BA69C3F8D42016E0FB68BA69C3F8C02074
S214401E40FB68BA69C3F8D0200DE0FB68BA69C3F8EE
S214401E50C020FB68BA69C3F8D42004E0FB68BA69BE
S214401E60C3F8B42003E0FB68BA69C3F8B02000BFEB
S214401E703437BD465DF8047B704700BF0707200037
S214401E8080B400AFBFF34F8FBFF36F8F0C4A0C4B3D
S214401E90D3F8903223F00103C2F89032084A084B38
S214401EA0D3F8943223F00103C2F89432BFF34F8F35
S214401EB0BFF36F8F00BFBD465DF8047B704700BF21
S214401EC000ED00E098B500AF5E4B4FF400425A601C
S214401ED05D4B98475D4B98475D4B5E4A5A605C4BFE
S214401EE05D4A5A605D4B98475D4B984701214820B4
S214401EF05C4B9847012148205B4B984700210B20BC
S214401F00584B984788210B20584B984702210B2066
S214401F10574B984700211520544B98471520554B52
S214401F209847554A544BD3F8143143F01003C2F83F
S214401F301431032124204D4B984724204D4B98477D
S214401F4000210320494B984703204A4B98470021DD
S214401F500420464B98470420464B984700234FF4AE
S214401F6000524FF060514548454CA04700234FF083
S214401F7080424FF060514148414CA0470123FF2228
S214401F804FF000613D483E4CA04701233F224FF0B2
S214401F9000613C483A4CA04701234FF4C0324FF012
S214401FA000613948364CA04701234FF480724FF009
S214401FB000613248324CA04701234FF400624FF094
S214401FC000612E482E4CA04701234FF400224FF0CC
S214401FD000612E482A4CA04700234FF400724FF071
S214401FE080512648264CA0474FF400712348284B82
S214401FF098474FF080517420264B98474FF08051B9
S2144020007520244B98474FF080517620214B9847B7
S2144020104FF080517B201F4B98474FF0605118205F
S2144020201C4B98474FF0605106201A4B98474FF08C
S21440203060515320174B98475320174B984700BF83
S21440204098BD00BF50180E40311A4000691A400033
S214402050000C0E400C08005A0C07005A811E400027
S214402060291B4000BD1C4000451D4000A11B4000F0
S214402070B11D4000551B40000080084000120E4035
S214402080AD2A400000160E40000E0E4000140E40D2
S21440209081284000D52C4000752C400080B483B089
S2144020A000AF78607B6801221A6000BF0C37BD46DF
S2144020B05DF8047B704780B483B000AF78603960C9
S2144020C07B683A685A6100BF0C37BD465DF8047BB2
S2144020D07047000090B583B000AF06200A4B984783
S2144020E0002303222C210948094CA04700237B608B
S2144020F002E07B6801337B607B68FE2BF9D900BF2A
S2144021000C37BD4690BD00BFA52C40000080004067
S2144021105D34400080B584B000AF786039600620FA
S214402120094B98473A6879680848094B984700230E
S214402130FB6002E0FB680133FB60FB68FE2BF9D9CD
S21440214000BF1037BD4680BD752C40000080004063
S2144021505118400090B587B000AF0346B9607A602A
S214402160FB730620144B9847FB7B99B2002303224F
S2144021701248134CA04700237B6102E07B69013381
S2144021807B617B69FE2BF9D97B68002B10D006203B
S2144021900C4B98477A68B96808480B4B9847002319
S2144021A07B6102E07B6901337B617B695E2BF9D9F9
S2144021B000BF1C37BD4690BDA52C400000800040A7
S2144021C05D344000752C40005118400080B584B006
S2144021D000AF0023BB608123BB7000237B700323CA
S2144021E0FB6048E0BB1C01221946FB20264B984763
S2144021F0BB780133DBB2BB7000237B6002E07B68B8
S21440220001337B607B68FE2BF9D900220021D32066
S2144022101D4B984706201D4B9847FB1C012219462C
S2144022201B481C4B984700237B6002E07B680133C9
S2144022307B607B68FE2BF9D9FB781A46FB68013B2E
S214402240DB0002FA03F31A46BB681343BB607B1CF1
S21440225001221946FB200C4B984700237B6002E086
S2144022607B6801337B607B6840F6FE729342F7D909
S214402270FB68013BFB60FB68002BB3D1BB6818468C
S2144022801037BD4680BD00BF55214000752C40002C
S21440229000800040C518400080B485B000AF78602C
S2144022A00023FB600CE00023FB6002E0FB68013388
S2144022B0FB60FB68074A9342F8D9FB680133FB6032
S2144022C0FA687B689A42EED300BF1437BD465DF885
S2144022D0047B70479F86010080B487B000AFF860EB
S2144022E0B9607A603B60FB681B68B3F5A07F03D398
S2144022F0FB6840F23F121A607B681B68B3F5A07F0C
S21440230003D37B6840F23F121A60BB681B68B3F584
S214402310F07F03D3BB6840F2DF121A603B681B684D
S214402320B3F5F07F03D33B6840F2DF121A60FB68D8
S2144023301A687B681B689A4209D9FB681B687B61F0
S2144023407B681A68FB681A607B687A691A60BB68A3
S2144023501A683B681B689A4209D9BB681B687B6150
S2144023603B681A68BB681A603B687A691A6000BFA7
S2144023701C37BD465DF8047B7047000080B584B0CE
S21440238000AF0346FB71FB79002B02D0E823FB73BA
S21440239001E04823FB7307F10F030122194636205C
S2144023A0024B984700BF1037BD4680BD55214000C0
S2144023B090B587B000AF0446084611461A462346F5
S2144023C0FB800346BB800B467B8013463B80002346
S2144023D07B6104237B61FB887B827A88FB8813447D
S2144023E09BB2013B9BB23B82BB88FB813A88BB8851
S2144023F013449BB2013B9BB2BB8107F112035B784F
S2144024003B7207F112031B787B7207F110035B786F
S214402410BB7207F110031B78FB7207F108037A6959
S21440242019462A20134B9847002200210020114BC2
S214402430984707F10E035B783B7207F10E031B7853
S2144024407B7207F10C035B78BB7207F10C031B78B9
S214402450FB7207F108037A6919462B20054B98470B
S214402460002200210020034B984700BF1C37BD4682
S21440247090BD00BF5521400090B589B002AF78604E
S2144024800323FB604348444B984707F10C01002365
S2144024900093424B03223F48414CA0470022032171
S2144024A03C48404B984707F10C03194639483E4B89
S2144024B0984738483D4B9847012136483C4B98470B
S2144024C00022002101203B4B9847C8203A4B9847B2
S2144024D0002200211120374B9847C820364B98479A
S2144024E0364B984778617B6949F28842934201D0DF
S2144024F001234AE04823FB7407F1130301221946DF
S21440250036202C4B984764202B4B98470423FB746B
S21440251007F1130301221946CF20264B9847642023
S214402520254B98470623FB7407F1130301221946EF
S2144025303A20204B984764201F4B984700220021A2
S21440254013201C4B984764201B4B98471C4B9847BE
S2144025506420194B984700201A4B98476420164B26
S21440256098477B681B689AB27B685B689BB2002181
S2144025700020154CA0477B689B681846134B98472D
S21440258000210020124B9847002318461C37BD46B2
S21440259090BD00BF00800040D5164000002D3101A0
S2144025A0451740007D354000F91740009D2040000B
S2144025B0B72040005521400099224000CD214000E0
S2144025C0D52540007D234000B1234000ED25400046
S2144025D04126400080B500AF002200212920024B52
S2144025E0984700BF80BD00BF5521400080B485B0ED
S2144025F000AF78600023FB6016E0FB685A1CFA6068
S2144026007A68120CD1B20D4AD154FB685A1CFA6053
S2144026107A68120AD1B2094AD154FB685A1CFA6049
S2144026207A68D1B2054AD154FB68B3F5707FE4D3DB
S21440263000BF1437BD465DF8047B70470C0B402046
S21440264080B584B000AF03460A46FB801346BB8085
S2144026500023FB600423FB60BB1D5B783B72BB1D05
S2144026601B787B72BB1D5B78BB72BB1D1B78FB72F5
S21440267007F10803FA6819462A20114B98470022AA
S214402680002100200E4B98473B1D5B783B723B1D5C
S2144026901B787B723B1D5B78BB723B1D1B78FB72C5
S2144026A007F10803FA6819462B20054B9847002285
S2144026B000210020024B984700BF1037BD4680BD22
S2144026C05521400090B587B000AFF860B9607A6099
S2144026D03B603B463A1D07F1080107F10C002A4CC7
S2144026E0A047FB6898B2BB6899B27B689AB2FB6811
S2144026F09BB2D31A9BB201339CB23B689AB2BB687A
S2144027009BB2D31A9BB201339BB222461F4CA047C2
S2144027101F4B98477A68FB68D31A01333968BA6802
S2144027208A1A013202FB03F33B613B69194AA2FB5A
S21440273003231B0A7B6104E04FF470711648174B65
S21440274098477B695A1E7A61002BF5D13969114B3F
S214402750A3FB01231A0A13469B0013449B01CA1A83
S21440276013465B00134419460B480C4B98474FF4EE
S214402770F0734FF4A07200210020044CA04700BF25
S2144027801C37BD4690BD00BFD9224000B123400053
S214402790D5204000CDCCCCCC0C0B402015214000A1
S2144027A090B58BB000AFF860B9607A603B60FB686C
S2144027B03B62BB68FB61FA687B681344013BBB61C4
S2144027C0BA683B681344013B7B6107F1140307F189
S2144027D0180207F11C0107F120001B4CA0473B6A7A
S2144027E098B2FB6999B2BB699AB23B6A9BB2D31A5C
S2144027F09BB201339CB27B699AB2FB699BB2D31AF7
S2144028009BB201339BB22246104CA047BA693B6A42
S214402810D31A7969FA698A1A02FB03F37B627A6AE9
S21440282013465B0013441A46B96B2C20084B984756
S2144028304FF4F0734FF4A07200210020034CA047E1
S21440284000BF2C37BD4690BDD9224000B123400082
S2144028505521400080B485B000AFF860B9607A601A
S2144028607B68002B03D0FB68BA685A6602E0FB68B8
S214402870BA681A6600BF1437BD465DF8047B7047D9
S21440288080B483B000AF786039607B683A681A637A
S21440289000BF0C37BD465DF8047B704780B483B0FC
S2144028A000AF786039607B683A685A6300BF0C377F
S2144028B0BD465DF8047B704780B487B000AFF860D3
S2144028C0B9607A60FB687A685A64BB68B3F1C05FE7
S2144028D04AD0B3F1C05F08D8B3F1006F16D0B3F159
S2144028E0805F2CD0002B69D064E0B3F1205F65D0C8
S2144028F0B3F1205F03D8B3F1005F4AD05AE0B3F19A
S214402900405F5BD0B3F1605F58D053E0FB681B6F0D
S2144029107B61FB681A6F7B68D9437B690B401A4022
S214402920FB681A67FB685B6F7B61FB685A6F7B6866
S214402930D9437B690B401A40FB685A673AE0FB680C
S2144029401B6F7B617A687B691A43FB681A67FB6872
S2144029505B6F7B61FB685A6F7B68D9437B690B4032
S2144029601A40FB685A6725E0FB681B6F7B61FB6873
S2144029701A6F7B68D9437B690B401A40FB681A671D
S214402980FB685B6F7B617A687B691A43FB685A67B2
S21440299010E0FB681B6F7B617A687B691A43FB68B3
S2144029A01A67FB685B6F7B617A687B691A43FB68D2
S2144029B05A6700BFFB687A685A6000E000BF1C3761
S2144029C0BD465DF8047B704780B584B000AFF860C4
S2144029D0B9607A60B968F868194B98477B6803F025
S2144029E001031A46B968F868164B98477B6803F0A7
S2144029F00A03002B03D0FB68BA681A6202E0FB6841
S214402A00BA685A627B6803F00203002B04D0FB6866
S214402A10BA68C3F8802008E07B6803F00803002B00
S214402A2003D0FB68BA68C3F88420FB68BA685A616A
S214402A30FB68BA681A6000BF1037BD4680BD00BF4D
S214402A40292C40005528400080B584B000AFF8607F
S214402A50B9607A603B60B968F868124B9847BA69C3
S214402A60B968F868104B98473B68002B03D0FB6862
S214402A70BA681A6502E0FB68BA685A657B68002B3C
S214402A8003D0FB68BA681A6302E0FB68BA685A6308
S214402A90FB68BA681A61FB68BA681A6000BF1037EC
S214402AA0BD4680BD292C40005528400090B587B0D3
S214402AB002AFF860B9607A603B60BB68B3F1005F14
S214402AC016D0B3F1005F09D8B3F1805F10D0B3F1F0
S214402AD0C05F0DD0B3F1006F0AD03DE0B3F1405F68
S214402AE01AD0B3F1605F17D0B3F1205F0ED033E059
S214402AF07A68B968F8681C4B98473B6803F001034E
S214402B001A467968F868194B984727E03A68796812
S214402B10F868174B984721E0BB68B3F1605F0CBF7D
S214402B2001230023DBB21A463B6803F00403002B64
S214402B3014BF01230023DBB219463B6803F00103B0
S214402B40002B14BF01230023DBB200930B467968A9
S214402B50F868084CA04701E0002300E0012318462F
S214402B601437BD4690BD00BFB928400055284000E8
S214402B70C9294000492A400080B483B000AF78603D
S214402B8039607B689A6B3B681340002B01D1002369
S214402B9000E0012318460C37BD465DF8047B7047BD
S214402BA080B485B000AFF860B9607A607B6803F0A7
S214402BB01003002B20D0FB68BA68C3F8B0207B68AF
S214402BC003F02003002B04D0FB68BA68C3F8D42077
S214402BD003E0FB68BA68C3F8D0207B6803F0400384
S214402BE0002B04D0FB68BA68C3F8C02008E0FB6836
S214402BF0BA68C3F8C42003E0FB68BA68C3F8B420D8
S214402C0000BF1437BD465DF8047B704780B483B080
S214402C1000AF786039607B683A681A6400BF0C374A
S214402C20BD465DF8047B704780B483B000AF7860E3
S214402C3039607B683A685A6400BF0C37BD465DF819
S214402C40047B704780B483B000AF78607B68DB6CF1
S214402C5018460C37BD465DF8047B704780B483B099
S214402C6000AF78607B689B6C18460C37BD465DF8B5
S214402C70047B704780B584B000AF78607868084BB6
S214402C809847F8607B6803F01F03012202FA03F3BB
S214402C901A46FB681A6300BF1037BD4680BD00BFAA
S214402CA0852E400080B584B000AF78607868084BC9
S214402CB09847F8607B6803F01F03012202FA03F38B
S214402CC01A46FB685A6300BF1037BD4680BD00BF3A
S214402CD0852E400090B587B002AF7860396078683E
S214402CE0634B9847F8603B6803F0F043B3F1005FEE
S214402CF067D0B3F1005F09D8B3F1805F2BD0B3F152
S214402D00C05F43D0B3F1006F0AD0A9E0B3F1405F93
S214402D107ED0B3F1605F7BD0B3F1205F6CD09FE094
S214402D207B6803F01F03012202FA03F31A464FF0B2
S214402D300061F8684F4B98477B6803F01F030122F9
S214402D4002FA03F319463B6803F001031A46F86893
S214402D50494B984786E07B6803F01F03012202FA3E
S214402D6003F31A464FF08051F868424B98477B6809
S214402D7003F01F03012202FA03F319463B6803F0EF
S214402D8001031A46F8683C4B98476BE07B6803F0B3
S214402D901F03012202FA03F31A464FF0C051F868A7
S214402DA0344B98477B6803F01F03012202FA03F373
S214402DB019463B6803F001031A46F8682E4B9847BD
S214402DC050E07B6803F01F03012202FA03F31A4621
S214402DD04FF00051F868274B98477B6803F01F0375
S214402DE0012202FA03F319463B6803F001031A4630
S214402DF0F868214B984735E07B6803F01F030122B3
S214402E0002FA03F33A681946F8681C4B984729E0DB
S214402E107B6803F01F03012202FA03F319463B685E
S214402E2003F06053B3F1605F0CBF01230023DBB2B5
S214402E301A463B6803F00403002B14BF012300230B
S214402E40DBB218463B6803F00103002B14BF012396
S214402E500023DBB200930346F868094CA04701E024
S214402E60002300E0012318461437BD4690BD00BF3E
S214402E70852E4000B928400055284000C92940000A
S214402E80492A400080B485B000AF78607B685A0914
S214402E90054B13445B02FB60FB6818461437BD467F
S214402EA05DF8047B704700BF0707200080B584B0FC
S214402EB000AF786039607868264B9847F860786845
S214402EC0254B98470246FB681340FB60FB68002B87
S214402ED03CD00023BB6034E0204ABB681B0113444F
S214402EE01A683B689A4226D11C4ABB681B011344A9
S214402EF004331A68FB681340002B1CD0174ABB6883
S214402F001B0113440C331B681449BA6812010A4467
S214402F1010681249BA6812010A440432126811460F
S214402F2098470E4ABB681B01134404331B68DB43B7
S214402F30FA681340FB60BB680133BB60BB68062B76
S214402F4003D8FB68002BC7D100E000BF00BF103796
S214402F50BD4680BD452C40005D2C4000CC0E402038
S214402F6080B586B000AFF860B9607A603B60214BB0
S214402F701B68062B01D9012338E00023FB7511E0BE
S214402F80FB7D1B011C4A13443B613B691A68BB68C6
S214402F909A4204D13B695A687B689A4208D0FB7DC6
S214402FA00133FB75FA7D134B1B689A42E8D900E063
S214402FB000BF3B69BA681A603B697A685A603B69E9
S214402FC03A689A603B693A6ADA60FA7D094B1B6850
S214402FD001339A4204D1074B1B680133054A1360FC
S214402FE03A687968F868054B9847002318461837BA
S214402FF0BD4680BD3C0F4020CC0E4020A12B40005B
S21440300080B500AF0A210248024B984700BF80BDFA
S214403010000E0E40AD2E400080B500AF0B2102489A
S214403020024B984700BF80BD00100E40AD2E4000BA
S21440303080B500AF0C210248024B984700BF80BDC8
S21440304000120E40AD2E400080B500AF1021024861
S214403050024B984700BF80BD00140E40AD2E400086
S21440306080B500AF11210248024B984700BF80BD93
S21440307000160E40AD2E400080B483B000AF78609E
S2144030807B68013B032B1AD801A252F823F000BFFD
S214403090A1304000A7304000AF304000B73040007D
S2144030A000237B600EE04FF480737B600AE04FF4B1
S2144030B040737B6006E04FF400737B6002E00023C1
S2144030C07B6000BF0A490A4B1B6B23F440727B6847
S2144030D013430B6300BF064B9B6E03F00803002BA5
S2144030E0F9D000BF0C37BD465DF8047B704700BF83
S2144030F000060E4080B485B000AF78601D491D4B79
S2144031001B6B23F070027B6813430B634FF48053B2
S214403110FB6007E0FB68002B01D1012323E0FB683E
S214403120013BFB60134B9B6E03F00803002BF1D072
S214403130104A104B1B6B23F0030343F00203136348
S2144031404FF48053FB6007E0FB68002B01D101235E
S21440315009E0FB68013BFB60064B9B6E03F00803EF
S214403160002BF1D0002318461437BD465DF8047B8B
S214403170704700BF00060E4080B483B000AF786052
S2144031807B68012B05D10749064B9A68064B1343CB
S2144031908B60044B054A1A6000BF0C37BD465DF88D
S2144031A0047B704710180E40000010A5080000A5CC
S2144031B080B400AF094B5B6903F08003002B07D057
S2144031C0074B9B6E03F08003002B01D0012300E0E9
S2144031D000231846BD465DF8047B704710180E4025
S2144031E000060E4080B483B000AF78601549154B9A
S2144031F01A6A154B13430B6200BF124B9B6E03F4C7
S2144032000033002BF9D00F490E4B1A6A0F4B134070
S2144032107A68134343F45C130B6200BF094B9B6E02
S21440322003F40033002BF9D00649064B1A6A084BC4
S214403230134043F45C130B6200BF0C37BD465DF889
S214403240047B704700060E40080037008FFFC8FF1B
S214403250FFFFC8FE80B483B000AF786039607B68FB
S214403260002B08D01349134B1B6A134A1A40134BC2
S21440327013430B6218E00F490E4B1A6A104B13406B
S2144032803A68120292B21A430E4B13430B6200BFC7
S214403290084B9B6E03F00103002BF9D00549054B04
S2144032A01A6A094B13430B6200BF0C37BD465DF8E4
S2144032B0047B704700060E40FCFFC8FE0200370144
S2144032C0FCFFC8FF010037000000370180B400AFA4
S2144032D0044B9B6E03F480331846BD465DF8047B72
S2144032E0704700BF00060E4080B400AF044B4FF05E
S2144032F000529A6200BFBD465DF8047B704700BF2F
S21440330000060E4080B400AF044B9B6E03F00203F1
S2144033101846BD465DF8047B704700BF00060E4069
S21440332080B400AF044B9B6E03F040031846BD4686
S2144033305DF8047B704700BF00060E4080B485B041
S21440334000AF78600B4A7B6803F07F03C2F80C310D
S214403350084BD3F80C3143F01023FB60054AFB685A
S214403360C2F80C31002318461437BD465DF8047B7E
S214403370704700BF00060E4080B483B000AF786050
S2144033807B685B6803F00203002B01D0012300E05A
S214403390002318460C37BD465DF8047B7047000096
S2144033A080B582B000AF78607868034B984700BF1E
S2144033B00837BD4680BD00BF3D33400080B582B073
S2144033C000AF78607B68094A934203D11520084BCA
S2144033D0984706E07B68074A934202D12A20044B6E
S2144033E0984700BF0837BD4680BD00BF00800040FC
S2144033F0A13340000080054080B483B000AF7860C1
S21440340039607B685B6823F470227B685A607B680F
S2144034105A683B681B0403F470231A437B685A605F
S21440342000BF0C37BD465DF8047B704780B483B060
S21440343000AF786039607B685B6823F07F427B68CA
S2144034405A607B685A683B681B061A437B685A601A
S21440345000BF0C37BD465DF8047B704780B584B02E
S21440346000AF7860084611461A4603467B800B46F6
S2144034707B7013463B7043F69823FB6006E0FB6880
S2144034805A1EFA60002B01D1012320E07B681B699D
S21440349003F00203002BF2D078680F4B98470346A0
S2144034A0002B0ED07A887B781B0403F470231343DA
S2144034B0BB603B78002B06D0BB6843F08073BB6094
S2144034C001E07B88BB607B68BA68DA6000231846F8
S2144034D01037BD4680BD00BF7933400080B485B00C
S2144034E000AFF860B9607A607B68002B0CD0FB6850
S2144034F0BA680C3253F8223043F00101FB68BA68D0
S2144035000C3243F822100BE0FB68BA680C3253F8D2
S214403510223023F00101FB68BA680C3243F82210CF
S21440352000BF1437BD465DF8047B704780B485B055
S21440353000AFF860B9607A607B68002B0CD0FB68FF
S214403540BA680C3253F8223043F00201FB68BA687E
S2144035500C3243F822100BE0FB68BA680C3253F882
S214403560223023F00201FB68BA680C3243F822107E
S21440357000BF1437BD465DF8047B704780B485B005
S21440358000AFF860B9607A607B68042B18D1FB689E
S214403590BA680C3253F8223023F00801FB68BA6848
S2144035A00C3243F82210FB68BA680C3253F82230CB
S2144035B043F00401FB68BA680C3243F822102AE054
S2144035C07B68002B18D1FB68BA680C3253F822305F
S2144035D023F00801FB68BA680C3243F82210FB68F7
S2144035E0BA680C3253F8223023F00401FB68BA68FC
S2144035F00C3243F822100EE07B68082B0BD1FB6898
S214403600BA680C3253F8223043F00801FB68BA68B7
S2144036100C3243F8221000BF1437BD465DF8047BD9
S214403620704780B485B000AFF860B9607A60FB68D8
S214403630BA680C3253F8223023F0F001FB68BA68BF
S2144036400C3243F82210FB68BA680C3253F822203A
S2144036507B6842EA0301FB68BA680C3243F82210E2
S21440366000BF1437BD465DF8047B704780B485B014
S21440367000AF786039603A687B6813445A1E7B68AE
S214403680B2FBF3F3FB60FB68002B02DDFB68FF2B0D
S21440369002DD4FF0FF3301E0FB681BB218461437DB
S2144036A0BD465DF8047B704780B485B000AFF860D7
S2144036B0B9601346FB71FB79002B02D14FF0FF3304
S2144036C01BE0FB68BA680C3253F8223023F47F4183
S2144036D0FB68BA680C3243F82210FB68BA680C32B2
S2144036E053F82220FB791B029BB242EA0301FB6897
S2144036F0BA680C3243F82210002318461437BD46E9
S2144037005DF8047B704780B485B000AFF860B96060
S21440371011461A460B46FB711346BB71FB68BA68E6
S2144037200C3253F8223099B2FB68BA680C3243F830
S2144037302210FB68BA680C3253F82220FB791B042F
S21440374003F47F03B97909060B4342EA0301FB6899
S214403750BA680C3243F8221000BF1437BD465DF8F5
S214403760047B704780B483B000AF78607B680822E3
S2144037701A607B6820221A607B6804221A6000BFA9
S2144037800C37BD465DF8047B7047000080B584B0BA
S21440379000AF786039600023FB607B684FF0FF32F3
S2144037A09A627B681B6A78680B4B984778680B4B25
S2144037B098473B6859683B681B681A467868084BC8
S2144037C098470346012B01D10123FB60FB6818464E
S2144037D01037BD4680BD00BFF93A4000653740000F
S2144037E0E537400080B489B000AFF860B9607A60D1
S2144037F00023FB61BB68344A934201D901235DE054
S214403800BB68324A934237D97B68314AA2FB0323CE
S2144038109B0B033B7B61BA682E4B13449B007A6834
S214403820B2FBF3F3033B3B6105E0FB690133FB610D
S2144038307B695B087B617B69FF2B09D9FB69062B9B
S214403840F3D905E0FB690133FB613B695B083B61EB
S2144038503B69FF2B02D9FB69062BF3D97B69DAB2A9
S2144038603B691B029BB21A43FB691B0403F4E0232B
S2144038701A43FB681A6120E0BB685B007A68B2FBBB
S214403880F3F3033BBB6105E0FB690133FB61BB69B6
S2144038905B08BB61BB69FF2B02D9FB69062BF3D9DA
S2144038A0BB69DAB2BB691B029BB21A43FB691B04B5
S2144038B003F4E0231A43FB681A61002318462437B2
S2144038C0BD465DF8047B7047801A060000DC0500A4
S2144038D0F11976050012FD3F80B485B000AF7860E0
S2144038E039603B68002B01D100231DE07B681B78C4
S2144038F0FB603B68012B09DDFB681B02FB607B68B5
S21440390001331B781A46FB681343FB603B68022B67
S21440391009DDFB681B02FB607B6802331B781A4696
S214403920FB681343FB60FB6818461437BD465DF8DA
S214403930047B704780B586B000AF786039603B68DE
S214403940DB687B613B689B683B6147F23053FB60BA
S2144039507B69002B01D1012359E07B6800225A6025
S2144039603B681B7C1B0403F4FE023B685B681B023F
S21440397003F44073134343F480527B685A607B6879
S2144039800022DA603A683B685B6819461046224B6C
S214403990984702467B68DA607B6801221A6029E015
S2144039A07B681B6ABB60BB6803F48073002B01D046
S2144039B005232CE0FB685A1EFA60002B01D1092330
S2144039C025E07B69012B02D17B6802221A60BB6826
S2144039D003F00203002B00D10CE03B695A1C3A610D
S2144039E07A68126BD2B21A707B69013B7B6147F2F0
S2144039F03053FB607B69002BD2D100BF7B681B6ACB
S214403A0003F00103002BF9D07B681B6A002318469D
S214403A101837BD4680BD00BFD938400080B586B057
S214403A2000AF786039603B68DB687B613B689B68C9
S214403A303B617B69002B01D1012356E07B68002265
S214403A405A603B681B7C1B0403F4FE023B685B68C1
S214403A501B0203F440731A437B685A607B6800225B
S214403A60DA603A683B685B6819461046214B9847CF
S214403A7002467B68DA6019E07B681B6AFB60FB687D
S214403A8003F48073002B01D005232EE0FB6803F07F
S214403A900403002B00D109E03B695A1C3A611B78AD
S214403AA01A467B685A637B69013B7B617B69002BC6
S214403AB0E2D17B681B6AFB60FB6803F48073002BD3
S214403AC001D0052311E0FB6803F00403002B00D16E
S214403AD0EFE700BF7B6802221A6000BF7B681B6A64
S214403AE003F00103002BF9D0002318461837BD46D3
S214403AF080BD00BFD938400080B483B000AF786046
S214403B007B6880221A607B681B6B00BF0C37BD4603
S214403B105DF8047B704780B485B000AF786039604C
S214403B200023FB607B68AC221A603B681A683B68DF
S214403B305B68B2FBF3F31B09FB60FB68002B03D00A
S214403B40FB68B3F5803F01D301230AE07B68FA683F
S214403B501A623B689A687B685A607B6850221A6093
S214403B60002318461437BD465DF8047B704780B482
S214403B7083B000AF78600B46FB707B685B6903F0F0
S214403B800203002B01D1012303E0FA787B68DA6157
S214403B90002318460C37BD465DF8047B704780B45A
S214403BA083B000AF786039607B685B6903F00103DF
S214403BB0002B01D1012305E07B689B69DAB23B68A4
S214403BC01A70002318460C37BD465DF8047B7047D4
S214403BD080B489B000AFF860B9607A60BB681A01FB
S214403BE07B689A4202D81023FB6101E00823FB6100
S214403BF07B68DA00FB69B96801FB03F35B081A448B
S214403C00FB69B96801FB03F3B2FBF3F3BB61BB6925
S214403C10DB087B61BB6903F007033B617B69002BD4
S214403C2003D07B69B3F5803F01D301230FE0FB69E6
S214403C30082B05D1FB685B6843F40022FB685A609A
S214403C403B691A047B691A43FB681A6200231846CC
S214403C502437BD465DF8047B7047000080B582B0CF
S214403C6000AF786078680D4B98477B6800225A60B2
S214403C707B6800225A627B6800229A627868084B0A
S214403C8098477868074B98477868074B984778680E
S214403C90064B984700BF0837BD4680BD3D3E4000B6
S214403CA04F3D4000833D40009D3D4000B93D4000B3
S214403CB080B584B000AFF860B9607A60F8681A4B97
S214403CC098471A4B00221A60BB68002B09D0BB6885
S214403CD01B687A681946F868154B98470346002BC8
S214403CE001D001231BE0BB685A68BB689B681A4337
S214403CF0BB681B691A43BB68DB681A430B4B1B68DF
S214403D0013430A4A1360094B1B68084A1360FB6852
S214403D105A68064B1B681A43FB685A6000231846CD
S214403D201037BD4680BD00BF5D3C4000400F402080
S214403D30D13B400080B483B000AF78607B684022BF
S214403D401A6000BF0C37BD465DF8047B704780B4F0
S214403D5083B000AF78607B6888221A6000BF0C375B
S214403D60BD465DF8047B704780B483B000AF786092
S214403D707B6810221A6000BF0C37BD465DF8047B96
S214403D80704780B483B000AF78607B6824221A60A6
S214403D9000BF0C37BD465DF8047B704780B483B0E7
S214403DA000AF78607B684FF480721A6000BF0C37B3
S214403DB0BD465DF8047B704780B483B000AF786042
S214403DC07B684FF400221A6000BF0C37BD465DF892
S214403DD0047B704780B483B000AF786039607B68FE
S214403DE05B6903F00203002B01D1012305E03B6829
S214403DF0C3F308027B68DA61002318460C37BD46D9
S214403E005DF8047B704780B483B000AF786039605B
S214403E107B685B6903F00103002B01D1012306E0B8
S214403E207B689B69C3F308023B681A600023184608
S214403E300C37BD465DF8047B7047000080B483B005
S214403E4000AF78607B68044AC3F8E42000BF0C37B4
S214403E50BD465DF8047B70470041535580B483B03F
S214403E6000AFEFF310837B607B68002B0CBF012311
S214403E700023DBB23B6072B6BFF35F8F044B002279
S214403E801A703B6818460C37BD465DF8047B704791
S214403E900A00402080B483B000AF78607B68002B77
S214403EA014BF01230023DBB218460C37BD465DF82D
S214403EB0047B704780B582B000AF78607868074B67
S214403EC098470346002B05D0054B01221A70BFF3D6
S214403ED05F8F62B600BF0837BD4680BD953E400046
S214403EE00A00402080B584B000AF1E4BFB601E4BDE
S214403EF0BB60FA68BB689A420CD007E0BB681A1DE4
S214403F00BA60FA68111DF96012681A60BB68174AF1
S214403F109342F3D3164BBB6004E0BB681A1DBA60ED
S214403F2000221A60BB68134A9342F6D3124BFB60DA
S214403F30124AFB6823F07F039360114B98477860E2
S214403F40104A104B1B6843F470031360BFF34F8F47
S214403F50BFF36F8F78680C4B98470C4B98470C4BC9
S214403F609847FEE7C457440000004020F00A40202F
S214403F70F00A4020CC0F40200000400000ED00E05A
S214403F805D3E400088ED00E0B53E4000556540008F
S214403F90D555400080B400AFFEE7000080B400AFC7
S214403FA0524B1B6B03F00303012B14D0012B02D39F
S214403FB0022B38D07AE04E4B5B6903F08003002B2F
S214403FC004D04C4B4FF400421A606FE0494B4FF41C
S214403FD0FA421A606AE0454B1B6A03F08073002B76
S214403FE003D0444B444A1A6060E0424B434A1A604E
S214403FF03E4B1B6A03F07003102B04D0202B08D0D6
S214404000002B0ED00EE03B4B1B685B00394A13601A
S21440401008E0384B1A6813465B001344354A136071
S21440402000E000BF42E0314B1B6A03F08073002B78
S21440403003D0304B304A1A601CE02E4B2F4A1A6091
S2144040402A4B1B6A03F07003102B04D0202B08D099
S214404050002B0ED00EE0274B1B685B00254A1360F2
S21440406008E0244B1A6813465B001344214A136049
S21440407000E000BF1D4B1B6B03F00303022B14D163
S2144040801A4B9B6A1B0CC3F30A030133194A126886
S21440409002FB03F3174A1360144B9B6ADBB2154AC4
S2144040A01268B2FBF3F3134A136000BF0F4B1B6B4F
S2144040B003F07003702B08D10E4B1B68104AA2FB0E
S2144040C003235B080B4A13600AE0084B1B6B1B0973
S2144040D003F00703074A126822FA03F3054A1360FF
S2144040E000BFBD465DF8047B704700BF00060E402B
S2144040F010180E400C004020001BB70000093D0081
S214404100ABAAAAAA80B483B000AF78607B681D4A89
S214404110934204D81C4B4FF080621A602BE07B68B9
S2144041201A4A934203D8184B194A1A6023E07B6810
S214404130184A934203D8144B174A1A601BE07B6810
S214404140164A934203D8104B154A1A6013E07B6810
S214404150144A934204D80C4B4FF004221A600AE0EB
S2144041607B68114A934203D8074B104A1A6002E014
S214404170054B0F4A1A6000BF0C37BD465DF8047BFE
S214404180704700BFBFF35E01000C0E407FE7BD02E4
S214404190000100043FDB1C0400020004FFCE7B0548
S2144041A000030004BFC2DA067FB6390800050004E3
S2144041B00006000480B485B000AF7860104BFB600A
S2144041C0104B1B68002B02D10E4B0F4A1A600D4B4A
S2144041D01B68BB60BA687B681A44FB689A4202DD7B
S2144041E04FF0FF3306E0074B1A687B681344054AD6
S2144041F01360BB6818461437BD465DF8047B7047AD
S214404200FCFF4520440F4020D031402080B483B08E
S21440421000AF78604FF0FF3318460C37BD465DF868
S214404220047B704780B483B000AF786039603B68E9
S2144042304FF400525A60002318460C37BD465DF8CE
S214404240047B704780B483B000AF78600123184683
S2144042500C37BD465DF8047B704780B485B000AF30
S214404260F860B9607A60002318461437BD465DF89A
S214404270047B704780B483B000AF0346FB710949A6
S21440428097F907305B09FA7902F01F02012000FA1D
S21440429002F241F8232000BF0C37BD465DF8047B90
S2144042A0704700BF00E100E080B483B000AF034633
S2144042B0FB71094997F907305B09FA7902F01F024A
S2144042C0012000FA02F2203341F8232000BF0C37C9
S2144042D0BD465DF8047B704700E100E080B483B0E3
S2144042E000AF0346FB71094997F907305B09FA7935
S2144042F002F01F02012000FA02F2603341F8232048
S21440430000BF0C37BD465DF8047B704700E100E017
S21440431080B483B000AF03463960FB7197F907302D
S214404320002B0BDA0D49FB7903F00F03043B3A6888
S214404330D2B25201D2B20B441A7609E0084997F934
S21440434007303A68D2B25201D2B20B4483F8002307
S21440435000BF0C37BD465DF8047B704700ED00E0BB
S21440436000E100E080B483B000AF78607B68072B44
S21440437025D801A252F823F0994340009F434000BD
S214404380A5434000AB434000AF434000B34340002A
S214404390B7434000BB4340004FF4FA4310E04FF4AD
S2144043A000430DE04FF400430AE0084B08E0084B9A
S2144043B006E0084B04E0074B02E0064B00E0002313
S2144043C018460C37BD465DF8047B704700093D0033
S2144043D000127A00001BB70080B500AF0620054BE0
S2144043E09847024613469B0013449A0013441846C7
S2144043F080BD00BF6543400080B500AF024B984784
S2144044000346184680BD00BFD943400080B500AF84
S214404410024B984703465B08184680BDD943400088
S21440442080B582B000AF78607868034B984700BF8D
S2144044300837BD4680BD00BF3D33400080B58CB0D8
S21440444000AF786039604F4B984703467B623B68C5
S2144044501B68BB623B689B68FB623B681B68FB60F3
S2144044603B685B683B613B689B687B613B68DB689D
S214404470BB610023FB617B68434A934208D1072017
S214404480424B984707F1240319467868404B9847B3
S2144044907B68404A934208D108203C4B984707F136
S2144044A02403194678683A4B98477B683A4A9342C1
S2144044B008D12C20354B984707F1240319467868D5
S2144044C0334B98477B68354A934208D12D202F4B73
S2144044D0984707F12403194678682D4B98477B6820
S2144044E02F4A934208D12E20284B984707F12403A1
S2144044F019467868264B98477B682A4A934211D1DA
S2144045000D20224B98471F4B9847024607F10C0355
S21440451019467868244B98477868244B98477868BB
S214404520234B98477B68234A934211D10E20174B62
S2144045309847144B9847024607F10C03194678688B
S214404540194B98477868194B98477868184B98479E
S2144045507B68194A934211D10F200C4B9847094B60
S2144045609847024607F10C03194678680E4B984761
S21440457078680E4B984778680D4B984700BF3037A1
S214404580BD4680BD0D44400000080E40214440001A
S214404590173B4000000A0E40001A0E40001C0E401A
S2144045A0001E0E4000400240B13C4000353D4000F9
S2144045B0693D40000080024000C0024080B582B0A5
S2144045C000AF78600B46FB707B68364A93420AD150
S2144045D000BFFB7819467868334B98470346002B54
S2144045E0F7D101235AE07B68304A93420AD100BF94
S2144045F0FB78194678682C4B98470346002BF7D132
S21440460001234BE07B682A4A93420AD100BFFB78DD
S21440461019467868244B98470346002BF7D1012368
S2144046203CE07B68234A93420AD100BFFB78194698
S21440463078681D4B98470346002BF7D101232DE0A1
S2144046407B681D4A93420AD100BFFB7819467868BA
S2144046501A4B98470346002BF7D101231EE07B6890
S214404660174A93420AD100BFFB7819467868134B25
S21440467098470346002BF7D101230FE07B68114A89
S21440468093420AD100BFFB78194678680B4B98478F
S2144046900346002BF7D1012300E0002318460837D5
S2144046A0BD4680BD00080E406F3B4000000A0E40ED
S2144046B0001A0E40001C0E4000400240D53D40000F
S2144046C00080024000C0024080B584B000AF7860F1
S2144046D039600023FB607B68344A934207D100BFB1
S2144046E039687868324B98470346002BF8D17B6888
S2144046F0304A934207D100BF396878682C4B9847B8
S2144047000346002BF8D17B682B4A934207D100BF63
S21440471039687868264B98470346002BF8D17B6863
S214404720264A934207D100BF39687868204B98479D
S2144047300346002BF8D17B68214A93420DD100BF37
S21440474007F10C03194678681E4B98470346002B22
S214404750F6D1FB68DAB23B681A707B681A4A934215
S2144047600DD100BF07F10C0319467868154B9847E2
S2144047700346002BF6D1FB68DAB23B681A707B68BA
S214404780124A93420DD100BF07F10C0319467868D0
S2144047900C4B98470346002BF6D1FB68DAB23B68D1
S2144047A01A7000BF1037BD4680BD00BF00080E40DF
S2144047B09F3B4000000A0E40001A0E40001C0E4070
S2144047C000400240073E40000080024000C00240D9
S2144047D080B582B000AF786039600F4A7B6813605E
S2144047E00E4B0F4A1A600F4B0F4A1A6039687868AA
S2144047F00E4B98470E4B1B689B68002118460D4B86
S21440480098470B4B1B685B6800211846094B984736
S21440481000BF0837BD4680BD900F40208C0F40201B
S214404820BD454000880F4020C94640003D444000FA
S21440483040014020156C400080B582B000AF7860E3
S2144048403960144B984702463B681A603B68002222
S2144048505A727B68104A934203D113200F4B9847F5
S2144048600EE07B680E4A934203D114200B4B9847C8
S21440487006E07B680B4A934202D12920074B9847B3
S21440488039687868084B9847034618460837BD4647
S21440489080BD00BF0D4440000080014021444000E0
S2144048A000C00140000006408D37400090B58BB0F8
S2144048B002AFF860B9607A603B60BB68FB612EE08F
S2144048C0FB691B78FB76FB7EFA68127A9B1A7B6143
S2144048D0FB685B7AFA7E9A421ED8FB685A687B6908
S2144048E0DB0013443B61786839683B695B685B680A
S2144048F01A463B695B689B681C463B695B681B685D
S214404900009323460A4CA0473B695B685A683B6B5A
S21440491013447A6813447B60FB690133FB61FB698F
S2144049201B78002BCCD100BF2437BD4690BD00BFBE
S214404930A127400080B500AF094B4FF4A0721A6023
S214404940074B4FF4F0725A60054B064A9A60044B88
S214404950044ADA600248044B984700BF80BD00BF57
S214404960940F4020FCFCFC00792440002DE9B04325
S2144049709EB000AF7860734A07F16C0307CA03C362
S2144049801A80714B07F148041D460FCD0FC40FCD5A
S2144049900FC42B6823606D4A07F13C0307CA03C364
S2144049A01A706B4B07F118041D460FCD0FC40FCD80
S2144049B00FC42B68237007F10C0300221A605A605C
S2144049C09A60644B3B614A233B7507F10C031946DA
S2144049D06148624B9847034687F8773002234A225D
S2144049E05D4978685E4CA047034687F877300022DA
S2144049F0062178685B4B984703460122194678683B
S214404A00594B9847594B9847034619464FF0000272
S214404A100B4614464FEA841949EA93694FEA8318CD
S214404A2043464C465B1844EB020441F22B714FF070
S214404A30000213EB010844EB0209404649464C4C41
S214404A4041F22C724FF00003A04703460C4618462E
S214404A50484B9847002207217868424B98470346C0
S214404A60202219467868404B9847002207217868EC
S214404A703C4B9847034601339BB210221946786850
S214404A80394B9847002207217868364B98470346AB
S214404A9002339BB24B2219467868334B9847002224
S214404AA0072178682F4B9847034603339BB28422EE
S214404AB0194678682C4B9847002208217868294B7D
S214404AC098470346194607F16C031A4678682A4BFE
S214404AD09847002209217868224B98470346194692
S214404AE007F148031A467868234B984700222E2140
S214404AF078681C4B98470346194607F13C031A460C
S214404B0078681D4B9847002238217868154B98479F
S214404B100346194607F118031A467868164B984715
S214404B200022062178680F4B9847034602339BB213
S214404B300122194678680C4B984700BF7837BD4627
S214404B40BDE8B083E0534400EC53440010544400A6
S214404B501C544400801A060000800140394840003A
S214404B60290C4000E10C4000C50D4000F9434000D0
S214404B704562400001004020490D400080B582B0AB
S214404B8000AF7860396039687868094B98470346C3
S214404B90002B04D039687868064B984703E039689C
S214404BA07868054B984700BF0837BD4680BD00BFB4
S214404BB0792B40009D2840008128400098B500AFE2
S214404BC00648074B984740F2DF1340F23F12002159
S214404BD00020044CA04700BF98BD00BFFCFCFC0072
S214404BE0ED254000C526400098B500AF09480A4B61
S214404BF098475D2340F23F1200215D20074CA047B6
S214404C0040F2DF1340F23F125E210020034CA047E3
S214404C1000BF98BDFCFCFC00ED254000C5264000CA
S214404C2084B090B583B002AF07F1100484E80F005B
S214404C303B69022B0DD1BB8E1846FB8E1946BB6ACC
S214404C401A46FB6A1C467B6A009323460C4CA047D8
S214404C500FE03B69012B0CD1BB8E1846FB8E1946E4
S214404C60BB691A46FB691C467B6900932346044C85
S214404C70A04700BF0437BD46BDE8904004B070472B
S214404C80A127400090B5ADB002AF78600B46FB70F0
S214404C90464B1B78DBB2002B0CD04548454B98471B
S214404CA0EB2340F23F1264211420434CA0473F4B75
S214404CB000221A70FA7813461B019B1A9B001A466C
S214404CC07B6813441A4607F10803114618463B4BC7
S214404CD0984707F1080101230093642314223848BB
S214404CE0384CA047FA7813461B019B1A9B001A467D
S214404CF07B6813441A6A07F1280333491846334B36
S214404D00984707F1280101230093822314222C4858
S214404D102C4CA047FA7813461B019B1A9B001A4658
S214404D207B6813445A6A07F1480329491846274BBB
S214404D30984707F14801012300939B2314222048FB
S214404D40204CA047FA7813461B019B1A9B001A4634
S214404D507B6813449A6A07F168031E4918461B4B42
S214404D60984707F1680101230093B9231422144899
S214404D70144CA047FA7813461B019B1A9B001A4610
S214404D807B681344DA6A07F188030F4918460F4BCD
S214404D90984707F1880101230093D223142208483C
S214404DA0084CA04700BFAC37BD4690BD4A0F4020D8
S214404DB0FCFCFC00ED254000C5264000416E40004E
S214404DC0A4F74100AD48400040544400B56D400053
S214404DD04C54440058544400F0B58DB008AF786049
S214404DE039600023FB6015E0FB682C2202FB03F3CE
S214404DF07A68D6186D4606F110040FCC0FC594E8B5
S214404E00070085E8070096E80F00064CA047FB68B9
S214404E100133FB60FA683B689A42E5DB00BF143713
S214404E20BD46F0BD214C400090B58DB002AF7860D5
S214404E307B68002B12D00B4B984707F108030A4AB1
S214404E401C4613460FCB07C4238007F108010123F5
S214404E50009302235F220548054CA04700BF2C372D
S214404E60BD4690BDBD4B400060544400A4F7410091
S214404E70AD48400090B58BB002AF0A4B1A680A4B5B
S214404E801B68384609490A4CA04739460123009317
S214404E904FF4897382220748074CA04700BF243747
S214404EA0BD4690BD4C0F4020500F402070544400EB
S214404EB0B56D4000A4F74100AD484000F0B58DB058
S214404EC008AFF860B9607A60FB70184B1B78DBB2AD
S214404ED0002B10D0164B9847FE686D4606F110041E
S214404EE00FCC0FC594E8070085E8070096E80F004A
S214404EF0104CA04716E0104B1B78DBB2002B08D0B6
S214404F000E4B1A680E4B1B68194610460D4B9847B9
S214404F1008E0B968F8680C4B9847FB7819467868FB
S214404F200A4B984700BF1437BD46F0BD3C014020B1
S214404F30E94B4000214C40004B0F40204C0F402096
S214404F40500F4020754E4000D94D4000854C4000E3
S214404F5080B483B000AF78607A6813469B001344F1
S214404F609B011B0BC3F5A07318460C37BD465DF876
S214404F70047B704780B483B000AF78607A6813468D
S214404F801B019B1A5B011B0B18460C37BD465DF890
S214404F90047B704780B582B000AF786039600A4BBA
S214404FA01B78DBB2002B0CBF01230023DBB21A4672
S214404FB0054B1A704FF480710448054B984700BF64
S214404FC00837BD4680BD00BF480F402000120E4047
S214404FD07D4B400090B587B004AF2D482D4B984789
S214404FE078607B6803F00403002B15D00421284822
S214404FF0294B9847294B1B68002B08D1284B1B6828
S214405000013B274A1360254B3B221A6004E0234BA2
S2144050101B68013B214A13607B6803F00203002BA8
S21440502021D0B91C1D4B1E4A19481E4CA0471C4B8C
S2144050301B68002202920122019200930123002263
S21440504001211348184CA04702211148124B98479B
S214405050164B1B78DBB2002B0CBF01230023DBB2C0
S2144050601A46124B1A70012109480B4B98470821E3
S2144050700748094B984710210548074B9847202179
S2144050800348054B984700BF0C37BD4690BD00BF50
S21440509060180E40350640004D064000500F402038
S2144050A04C0F402027024000F50340004B0F4020A5
S2144050B0B0B5D6B004AF07F10C03186007F108038B
S2144050C019603B1D1A6007F16803D222002118467A
S2144050D0434B9847002387F84731002387F84631EB
S2144050E007F15C0207F10C03114618683D4B9847E0
S2144050F00346002B4AD1B7F8603018463A4B9847DB
S214405100C7F84001B7F85E301846384B9847C7F89E
S2144051103C0197F85D30C02B02D1012387F8463119
S214405120D7F840319AB207F108031B681A80D7F8BF
S2144051303C319AB23B1D1B681A8097F85C301C467F
S214405140B7F85E301D46B7F860301A4697F85D30BF
S214405150194607F11400D7F83C310393D7F840318D
S2144051600293019100922B4622462149214CA047AA
S21440517007F1140207F16803114618461E4B98477C
S21440518097F84731013387F8473100E000BF07F111
S2144051900C031868194B984703461A4697F8473148
S2144051A0022B94BF01230023DBB21340002B97D180
S2144051B097F84731002B0BD007F168031846104B81
S2144051C09847024607F1680319460E480E4B984723
S2144051D097F84631184607F5A477BD46B0BD00BFE0
S2144051E03D6B4000D90E4000514F4000754F400087
S2144051F07C544400B56D4000016E4000310E4000C6
S214405200016F4000008002403D14400080B582B0EF
S21440521000AF78600E480F4B98477B681B68012BA1
S21440522001D1022200E001227B681A600A4B1B78FB
S214405230DBB2002B0CBF01230023DBB21A46064B21
S2144052401A70064B00221A7000BF0837BD4680BD54
S214405250B4544400A56540003C0140204B0F40201C
S21440526080B483B000AF78600B46FB707B681B68E9
S214405270012B01D1022200E001227B681A60FB78F4
S214405280023BDAB2064B1A70064B01221A70064BE6
S21440529000221A7000BF0C37BD465DF8047B70478D
S2144052A0490F40204A0F40204B0F402080B582B027
S2144052B000AF78600B46FB707B681B68012B01D102
S2144052C0022200E001227B681A60094B1B78DBB2A1
S2144052D0002B06D0074B01221A700020064B984739
S2144052E002E00120044B984700BF0837BD4680BD0A
S2144052F0480F40204B0F4020294E400090B583B0C9
S21440530002AF0A20144B984709224FF40061134815
S214405310134B98474FF400611048124B9847124B76
S214405320009350234FF400620A210C480F4CA047CC
S2144053300A200F4B984701210A200E4B98470A4BEC
S214405340009350234FF400620A210448074CA047BC
S21440535000BF0437BD4690BD3D334000000E0E40B2
S214405360C92940000D2C4000954F4000612F400059
S214405370754240001143400090B583B002AF022012
S214405380164B984700211648164B98470023009323
S2144053900023002200211248134CA047002300227D
S2144053A000210F48114CA0470220114B984702207D
S2144053B0104B9847002102200F4B984702200F4B76
S2144053C09847022106480E4B9847042104480C4B48
S2144053D0984700BF0437BD4690BD00BF3D334000F0
S2144053E060180E40D5014000F5044000ED02400034
S2144053F0A9424000DD424000114340007542400053
S2144054000B02400090B585B002AF78600C20074B89
S21440541098477A680023009300234FF4807104482D
S214405420044CA04700BF0C37BD4690BD3D334000FE
S21440543000120E40492A400090B585B000AF786013
S2144054400B46FB70FA7813461B019B1A9B001A46C4
S2144054507B681344196AFA7813461B019B1A9B0013
S2144054601A467B6813445B6A03FB01F1FA781346DD
S2144054701B019B1A9B001A467B681344DB6A0B444D
S214405480FB60FA7813461B019B1A9B001A467B6802
S214405490134493F83030002B11D00B4BF8689847E4
S2144054A00A4C4FF033320A4BA04703460C46194687
S2144054B02246084B0846114698470346FB60FB6861
S2144054C018461437BD4690BD055D4000D15D40008E
S2144054D03333F33FF561400084B090B484B000AFFE
S2144054E007F1180484E80F00BB69012B06D13C463F
S2144054F007F11C030FCB84E80F0005E03C4607F19C
S2144055002C030FCB84E80F00BB8FB7F844209A4299
S21440551016D3B7F84420BB8F19467B680B449A4293
S2144055200EDCFB8FB7F848209A4209D3B7F84820DC
S214405530FB8F1946BB680B449A4201DC012300E00E
S214405540002318461037BD4690BC04B07047000094
S214405550F0B591B00AAFF860084611461A460346C1
S214405560FB720B463B811346FB8000237B6121E0A8
S2144055707B692C2202FB03F3FA68D618FB88089353
S2144055803B8907936D4606F110040FCC0FC594E88F
S214405590070085E8070096E80F000B4CA047034637
S2144055A0002B04D009480A4B98477B6908E07B6982
S2144055B001337B61FA7A7B699A42D9DCFB7A013304
S2144055C018461C37BD46F0BDD9544000C854440068
S2144055D0A5654000B0B5ADF5747D00AF0123C7F8B2
S2144055E0A033C34B07F569740FCB84E80F00C14B5B
S2144055F007F56D740FCB84E80F000023A7F8C4337B
S2144056000023A7F8C633BC4BC7F8C8330123C7F8F6
S2144056107433BA4B07F55E740FCB84E80F00B84B73
S21440562007F562740FCB84E80F00BA23A7F89833C7
S2144056304FF49373A7F89A33B24BC7F89C330123C1
S214405640C7F84833AD4B07F553740FCB84E80F00CB
S214405650AB4B07F557740FCB84E80F005D23A7F8D4
S2144056606C334FF49373A7F86E33A64BC7F870337A
S2144056700123C7F81C33A44B07F548740FCB84E8C6
S2144056800F009F4B07F54C740FCB84E80F000023A8
S214405690A7F840334FF49373A7F84233994BC7F8B3
S2144056A044330123C7F8F032974B07F53D740FCBD0
S2144056B084E80F00924B07F541740FCB84E80F0047
S2144056C00023A7F8143340F28313A7F816338D4B04
S2144056D0C7F8183307F5317301221A6007F531739E
S2144056E0894A1C1D13460FCB84E80F0007F531731B
S2144056F0834A03F1140413460FCB84E80F0007F5E2
S2144057003173BA229A8407F5317340F28312DA84F1
S21440571007F531737B4A9A6207F5267301221A60B1
S21440572007F52673794A1C1D13460FCB84E80F00F5
S21440573007F52673724A03F1140413460FCB84E828
S2144057400F0007F52673E3229A8407F52673002296
S214405750DA8407F526736E4A9A62072387F8CF33B2
S21440576007F5B2731D4607F568740FCC0FC50FCC0E
S2144057700FC594E8070085E8070007F5B27307F5FC
S214405780267203F12C0415460FCD0FC40FCD0FC45F
S21440579095E8070084E8070007F5B27303F158045C
S2144057A007F552750FCD0FC40FCD0FC495E807000F
S2144057B084E8070007F5B27303F1840407F55D75C6
S2144057C00FCD0FC40FCD0FC495E8070084E807003F
S2144057D007F5B27303F1B00407F547750FCD0FC454
S2144057E00FCD0FC495E8070084E8070007F5B273AD
S2144057F007F5317203F1DC0415460FCD0FC40FCD0B
S2144058000FC495E8070084E8070007F5B27303F570
S214405810847407F53C750FCD0FC40FCD0FC495E8C3
S214405820070084E8070007F118033A4A1C46154665
S2144058300FCD0FC40FCD0FC40FCD0FC495E8070092
S21440584084E8070007F11803334A03F13C04154681
S2144058500FCD0FC40FCD0FC40FCD0FC495E8070072
S21440586084E8070007F118032C4A03F1780415462C
S2144058700FCD0FC40FCD0FC40FCD0FC495E8070052
S21440588084E8070007F11803254A03F1B4041546D7
S2144058900FCD0FC40FCD0FC40FCD0FC495E8070032
S2144058A084E8070007F118031E4A03F1F004154682
S2144058B00FCD0FC40FCD0FC40FCD0FC495E8070012
